:020000040800F2
:10000000001800207D000008000000000000000033
:1000100000000000000000000000000000000000E0
:10002000002382B0054A0193019B934203DC019BAC
:1000300001330193F8E702B0704700BF9F860100CB
:100040004FF400544FF000500A4A08B593690A492A
:1000500043F0100393614A6822F470024A604A68D0
:1000600042F440124A600C61FFF7DAFF0861FFF7C3
:10007000D7FFF8E70010024000100140002108B54A
:100080000B4A0C4B93420AD100220B490B4B0C48F4
:100090005B1A9B089A4205D1FFF7D2FFFEE743F8AF
:1000A000041BEFE750F8224041F822400132F1E70B
:1000B0000018002000180020001800200018002060
:0400C000C400000870
:040000050800007D72
:00000001FF
