:020000040800F2
:1000000000180020A100000800000000000000000F
:1000100000000000000000000000000000000000E0
:10002000002382B0054A0193019B934203DC019BAC
:1000300001330193F8E702B0704700BF9F860100CB
:1000400080E806007047000002680A4B10B553F8BC
:10005000224043685A4202F00F0203F00F0358BFD8
:100060005342002914BF002210221A440123934056
:10007000236110BD0018002007B50D22022168463B
:10008000FFF7DEFF68460121FFF7DEFFFFF7C8FF3D
:1000900000216846FFF7D8FFFFF7C2FFF2E7000034
:1000A000002108B50B4A0C4B93420AD100220B49A0
:1000B0000B4B0C485B1A9B089A4205D1FFF7DCFFFB
:1000C000FEE743F8041BEFE750F8224041F82240D6
:1000D0000132F1E70018002000180020001800206D
:0800E00010180020E8000008E0
:1000E80000080140000C01400010014000140140CC
:04000005080000A14E
:00000001FF
