:020000040800F2
:1000000000180020C50000080000000000000000EB
:1000100000000000000000000000000000000000E0
:10002000002382B0054A0193019B934203DC019BAC
:1000300001330193F8E702B0704700BF9F860100CB
:1000400080E806007047000002680A4B10B553F8BC
:10005000224043685A4202F00F0203F00F0358BFD8
:100060005342002914BF002210221A440123934056
:10007000236110BD0018002007B5104A02219369C2
:10008000684643F0100393610D4B5A6822F47002E6
:100090005A605A6842F440125A600D22FFF7D0FFAE
:1000A00068460121FFF7D0FFFFF7BAFF002168463D
:1000B000FFF7CAFFFFF7B4FFF2E700BF00100240EE
:1000C00000100140002108B50B4A0C4B93420AD1A5
:1000D00000220B490B4B0C485B1A9B089A4205D136
:1000E000FFF7CAFFFEE743F8041BEFE750F8224092
:1000F00041F822400132F1E70018002000180020EA
:0C01000000180020101800200C0100085E
:10010C0000080140000C01400010014000140140A7
:04000005080000C52A
:00000001FF
