:020000040800F2
:10000000001800208100000800000000000000002F
:1000100000000000000000000000000000000000E0
:10002000002382B0054A0193019B934203DC019BAC
:1000300001330193F8E702B0704700BF9F860100CB
:100040000D4A08B593690D4C43F010039361626843
:1000500022F470026260626842F4401262602369B6
:1000600043F400532361FFF7DBFF236943F00053A0
:100070002361FFF7D5FFF2E70010024000100140B6
:10008000002108B50B4A0C4B93420AD100220B49C0
:100090000B4B0C485B1A9B089A4205D1FFF7D0FF27
:1000A000FEE743F8041BEFE750F8224041F82240F6
:1000B0000132F1E70018002000180020001800208D
:0800C00000180020C800000830
:04000005080000816E
:00000001FF
