:020000040800F2
:1000000000180020B10000080000000000000000FF
:1000100000000000000000000000000000000000E0
:10002000002382B0054A0193019B934203DC019BAC
:1000300001330193F8E702B0704700BF9F860100CB
:10004000202390FBF3F3094A52F82320434203F0A4
:100050000F0300F00F0058BF5842002914BF0023BF
:1000600010230344012098401061704700180020BD
:100070000D4A08B5936943F0100393610B4B5A681E
:1000800022F470025A605A6842F440125A60012108
:100090004D20FFF7D5FFFFF7C3FF00214D20FFF7ED
:1000A000CFFFFFF7BDFFF2E7001002400010014054
:1000B000002108B50B4A0C4B93420AD100220B4990
:1000C0000B4B0C485B1A9B089A4205D1FFF7D0FFF7
:1000D000FEE743F8041BEFE750F8224041F82240C6
:1000E0000132F1E70018002000180020001800205D
:0800F00010180020F8000008C0
:1000F80000080140000C01400010014000140140BC
:04000005080000B13E
:00000001FF
