:020000040800F2
:1000000000180020090200080000000000000000A5
:1000100000000000000000000000000000000000E0
:100020007047FEE7302808B503D97B210348FFF766
:10003000F8FF034B03EB400008BD00BF6405000858
:10004000970500080B4A08B5936943F03C03936198
:10005000032807D8DFE800F00A020C04064808BDB0
:10006000064808BD93210648FFF7DBFF054808BD99
:10007000054808BD00100240000C0140001401407A
:10008000640500080008014000100140082000211C
:1000900070470000124910B50A784AB96FF07F40E6
:1000A000104B1A6058609A6005221A6001230B7089
:1000B0000C4B0D4A9B681168DB4323F07F438B4256
:1000C0000A4C07D2D4E9000110F1807041F100011F
:1000D000C4E90001D4E900011360184310BD00BF5A
:1000E0000C18002010E000E0081800200018002084
:1000F00038B5FFF7CFFF04460D46FFF7C7FF0246AE
:100100000B462046294600F0A5F838BD70B50646D6
:10011000FFF7EEFF841941EBE675FFF7E9FFA9420F
:1001200008BFA042F9D370BD10B50446002C05DD10
:100130004FF47A70FFF7EAFF013CF7E710BD08B50E
:10014000FFF7F2FF08BD04460D4608B523680022FC
:100150001B680121204698472846FFF7F0FF002240
:10016000236820461B68114698472846FFF7E7FF9B
:10017000ECE710B544684369226901B91B041343D5
:10018000236110BD70B5044608460D46FFF74AFFCF
:1001900006782846FFF746FF124B45782360304625
:1001A000FFF750FF01220F2105F00703E560072D3F
:1001B0004FEA830302FA05F523616060656188BF39
:1001C0000430026801FA03F322EA0303A06003602B
:1001D0000323216902688B4013430360024B2046CE
:1001E000236070BD04060008140600087FB53021A6
:1001F0006846FFF7C7FF6846C821FFF7A4FF002045
:1002000007B05DF804FB0000002108B50B4A0C4B59
:1002100093420AD100220B490B4B0C485B1A9B08F6
:100220009A4205D1FFF7E2FFFEE743F8041BEFE730
:1002300050F8224041F822400132F1E71018002026
:1002400000180020101800201018002024060008B4
:100250007047000053B94AB9002908BF00281CBFE5
:100260004FF0FF314FF0FF3000F07AB9ADF1080CDC
:100270006DE904CE00F006F8DDF804E0DDE90223C4
:1002800004B070472DE9F0478C460E460446089DA1
:10029000002B50D18A4217466CD9B2FA82FEBEF1C9
:1002A000000F0BD0CEF1200C01FA0EF620FA0CFC58
:1002B00002FA0EF74CEA060C00FA0EF43A0CBCFBFC
:1002C000F2F9BBB202FB19CC09FB03FA4FEA14485E
:1002D00048EA0C46B2450AD9F61909F1FF3180F017
:1002E0002581B24540F22281A9F102093E44A6EBE4
:1002F0000A06B6FBF2F002FB106600FB03F3A4B2A1
:1003000044EA0644A34209D9E41900F1FF3280F01F
:100310000B81A34240F2088102383C440021E41AD8
:1003200040EA0940002D62D0002324FA0EF42C602C
:100330006B60BDE8F0878B4207D9002D55D00021B6
:1003400085E841000846BDE8F087B3FA83F100294B
:1003500040F08F80B34202D3824200F2FC80841AC4
:1003600066EB03060120B446002D40D085E810104E
:10037000BDE8F08712B90127B7FBF2F7B7FA87FE9D
:10038000BEF1000F35D10121F61B4FEA174C1FFAC1
:1003900087F8B6FBFCF20CFB126608FB02F0230C9C
:1003A00043EA0646B04207D9F61902F1FF3302D2FA
:1003B000B04200F2D2801A46361AB6FBFCF00CFBB3
:1003C000106608FB00F8A3B243EA0644A04507D92B
:1003D000E41900F1FF3302D2A04500F2B9801846BB
:1003E000A4EB080440EA02409CE729462846BDE801
:1003F000F08707FA0EF7CEF1200326FA03F24FEA50
:10040000174CB2FBFCF11FFA87F80CFB112206FA1D
:100410000EF620FA03F301FB08F933431E0C46EAFB
:100420000246B14500FA0EF409D9F61901F1FF327E
:1004300080F08C80B14540F2898002393E44A6EBC1
:100440000906B6FBFCF00CFB106200FB08F99EB23B
:1004500046EA0246B14507D9F61900F1FF3371D2D9
:10046000B1456FD902383E44A6EB090640EA014186
:100470008FE7C1F1200722FA07F88B4048EA03030F
:1004800026FA07F44FEA134EB4FBFEF91FFA83FC79
:100490000EFB19448E4020FA07F809FB0CFA48EAD3
:1004A00006084FEA184646EA0444A24502FA01F259
:1004B00000FA01F608D9E41809F1FF3044D2A24548
:1004C00042D9A9F102091C44A4EB0A04B4FBFEF0D2
:1004D0000EFB104400FB0CFC1FFA88F848EA0444A9
:1004E000A44507D9E41800F1FF3E29D2A44527D935
:1004F00002381C4440EA0940A0FB0289A4EB0C0C22
:10050000CC45C246CE4615D312D055B1B6EB0A0340
:100510006CEB0E0606FA07F7CB401F43CE402F6068
:100520006E600021BDE8F0871046F7E68946DEE6FA
:100530004645EAD2B8EB020A69EB030E0138E4E75C
:100540007046D7E718468FE78146BDE7114676E744
:1005500002383C4444E7084606E7023A3E442BE7AB
:10056000704700BF433A2F74692D736F66747761CB
:1005700072652F68776C69622F6C6962726172793B
:100580002F68776C69622D73746D33326631303346
:1005900063382E6870700000000001000200030044
:1005A0000400050006000700080009000A000B000F
:1005B0000C000D000E000F010001010102010301FA
:1005C0000401050106010701080109010A010B01E7
:1005D0000C010D010E010F020002010202020302D2
:1005E0000402050206020702080209020A020B02BF
:1005F0000C020D020E020F020D00000000000000B0
:100600000000000051020008210000080000000066
:0C06100000000000730100082100000839
:08061C0068FCFF7F01000000F3
:0400000508000209E4
:00000001FF
