:020000040800F2
:100000000018002089000008000000000000000027
:1000100000000000000000000000000000000000E0
:10002000002382B0054A0193019B934203DC019BAC
:1000300001330193F8E702B0704700BF9F860100CB
:100040004FF400564FF000550C4A08B593690C4C1C
:1000500043F0100393610B4B5A6822F470025A600C
:100060005A6842F440125A60A3681E61FFF7D8FF35
:10007000A3681D61FFF7D4FFF6E700BF0010024040
:100080000018002000100140002108B50B4A0C4B5D
:1000900093420AD100220B490B4B0C485B1A9B0878
:1000A0009A4205D1FFF7CCFFFEE743F8041BEFE7C8
:1000B00050F8224041F822400132F1E700180020B8
:1000C000001800200018002010180020D0000008A0
:1000D00000080140000C01400010014000140140E4
:040000050800008966
:00000001FF
